:100000000C942A000C94A70B0C94D40B0C94010CA8
:100010000C9447000C9447000C9447000C94470044
:100020000C9447000C9447000C9447000C9446072E
:100030000C94D7080C9447000C9447000C9447008C
:100040000C9447000C9447000C9447000C94470014
:100050000C94470011241FBECFE5D8E0DEBFCDBF12
:1000600011E0A0E6B0E0E0E0F3E302C005900D92FD
:10007000AA38B107D9F711E0AAE8B1E001C01D9292
:10008000A639B107E1F70E9419190C947E190C9456
:100090000000EF92FF920F931F937B018C0120E0F1
:1000A00030E040E05FE40E94F50388238CF0C80153
:1000B000B70120E030E040E05FE40E94C1010E940F
:1000C00055049B01AC01205030404040504806C0D0
:1000D000C801B7010E9455049B01AC01B901CA01D6
:1000E0001F910F91FF90EF900895A0E0B0E0EBE733
:1000F000F0E00C944719DC012B01FA019C9192303D
:1001000008F439C1EB018881823008F433C194309E
:1001100069F4843009F02FC111969C91119789815F
:10012000981709F428C1A0E6B0E025C1843009F48D
:1001300021C18230A9F4923009F01DC19A01AD01AC
:1001400088E0EA010990AE01E90109929E0181501F
:10015000C1F7E201898111969C918923818308C1AD
:10016000923009F407C112962D903C901397EB0141
:100170008A819B811496AD90BD90CD90DC901797AD
:10018000EC80FD800E811F819101281B390BB90184
:1001900037FF04C066277727621B730B6032710537
:1001A0000CF061C0121613066CF537014801062EDB
:1001B00004C096948794779467940A94D2F721E0C8
:1001C00030E040E050E004C0220F331F441F551FB1
:1001D0006A95D2F721503040404050402E213F21B7
:1001E00040235123211531054105510521F021E01E
:1001F00030E040E050E079018A01E628F72808293C
:1002000019293CC0232BD1F1260E371E350146019A
:10021000062E04C096948794779467940A94D2F734
:1002200021E030E040E050E004C0220F331F441FC3
:10023000551F6A95D2F721503040404050402A2146
:100240003B214C215D21211531054105510521F04E
:1002500021E030E040E050E059016A01A628B728CB
:10026000C828D9280BC0821593052CF01C01AA249C
:10027000BB24650103C0EE24FF24870111969C91E5
:10028000D20111968C91981709F445C0992339F041
:10029000A80197012A193B094C095D0906C0A6016E
:1002A00095012E193F09400B510B57FD08C01182D3
:1002B0003382228224833583468357831DC081E0A5
:1002C00081833382228288279927DC01821B930B4A
:1002D000A40BB50B84839583A683B7830DC0220F2F
:1002E000331F441F551F24833583468357838281E0
:1002F000938101979383828324813581468157813D
:10030000DA01C9010197A109B1098F5F9F4FAF4F72
:10031000BF4328F30BC0918333822282EA0CFB1C7B
:100320000C1D1D1DE482F5820683178383E0808304
:10033000248135814681578157FF1AC0C901AA27F8
:1003400097FDA095BA2F81709070A070B0705695EF
:10035000479537952795822B932BA42BB52B848318
:100360009583A683B7838281938101969383828349
:10037000DF0101C0D201CD01CDB7DEB7E2E10C94BF
:100380006319A0E2B0E0E7ECF1E00C945319698343
:100390007A838B839C832D833E834F835887E9E048
:1003A000EE2EF12CEC0EFD1ECE010196B7010E943F
:1003B00046068E010F5E1F4FCE010596B8010E94C2
:1003C00046068A8991E089278A8BC701B801AE0168
:1003D000475E5F4F0E9475000E947105A096E6E09F
:1003E0000C946F19A0E2B0E0E8EFF1E00C9453191F
:1003F00069837A838B839C832D833E834F835887C5
:10040000F9E0EF2EF12CEC0EFD1ECE010196B701A6
:100410000E9446068E010F5E1F4FCE010596B80161
:100420000E944606C701B801AE01475E5F4F0E94B9
:1004300075000E947105A096E6E00C946F19A0E289
:10044000B0E0E5E2F2E00C94471969837A838B838C
:100450009C832D833E834F835887CE010196BE0136
:10046000675F7F4F0E944606CE010596BE016F5E14
:100470007F4F0E9446069985923088F089898230A4
:10048000C8F0943019F4823051F404C0843029F457
:10049000923081F480E690E0C6C0923049F420E0CA
:1004A0009A858A89981321E02A87CE010996BBC0D4
:1004B000823049F420E09A858A89981321E02A8BBA
:1004C000CE014196B0C02D843E844F8458886D88FB
:1004D0007E888F88988CEE24FF248701AA24BB2471
:1004E000650140E050E060E070E0E0E0F0E0C10174
:1004F00081709070892BE9F0E60CF71C081D191D1E
:100500009A01AB012A0D3B1D4C1D5D1D80E090E062
:10051000A0E0B0E0E614F7040805190520F481E036
:1005200090E0A0E0B0E0BA01A901480F591F6A1F8E
:100530007B1FAA0CBB1CCC1CDD1C97FE08C081E0F5
:1005400090E0A0E0B0E0A82AB92ACA2ADB2A3196B6
:10055000E032F10549F0660C771C881C991C569412
:10056000479437942794C3CFFA85EA892B893C892D
:100570008B859C85280F391F2E5F3F4F17C0CA01FE
:1005800081709070892B61F016950795F794E79428
:1005900080E090E0A0E0B0E8E82AF92A0A2B1B2BC3
:1005A00076956795579547952F5F3F4F77FDE7CF36
:1005B0000CC0440F551F661F771F17FD4160EE0CDE
:1005C000FF1C001F111F21503040403090E05907A0
:1005D00090E0690790E4790760F32B8F3C8FDB0193
:1005E000CA018F779070A070B07080349105A1051A
:1005F000B10561F447FD0AC0E114F10401051105DC
:1006000029F0405C5F4F6F4F7F4F40781A8EFE1786
:1006100011F081E08A8F4D8F5E8F6F8F78A383E01A
:10062000898FCE0149960E947105A096E2E10C9453
:100630006319A8E1B0E0EFE1F3E00C944F1969838E
:100640007A838B839C832D833E834F835887B9E0C5
:10065000EB2EF12CEC0EFD1ECE010196B7010E948F
:1006600046068E010F5E1F4FCE010596B8010E940F
:1006700046062985223008F47EC03989323010F4CC
:10068000B8017CC08A859A8989278A87243011F02D
:10069000223031F4231709F06EC060E670E06EC0BE
:1006A000343039F41D861E861F86188A1C861B86E8
:1006B00004C0323021F484E08987B7015FC02B8504
:1006C0003C858B899C89281B390B3C872B87ED84C3
:1006D000FE840F851889AD88BE88CF88D88CEA142F
:1006E000FB040C051D0540F4EE0CFF1C001F111F40
:1006F000215030403C872B8720E030E040E050E044
:1007000080E090E0A0E0B0E460E070E0EA14FB0478
:100710000C051D0540F0282B392B4A2B5B2BEA18C2
:10072000FB080C091D09B695A79597958795EE0CC2
:10073000FF1C001F111F6F5F7F4F6F31710531F775
:10074000DA01C9018F779070A070B0708034910584
:10075000A105B10561F427FD0AC0E114F10401050A
:10076000110529F0205C3F4F4F4F5F4F20782D87B8
:100770003E874F87588BBE01675F7F4FCB010E943A
:1007800071056896EAE00C946B19A8E1B0E0EBEC17
:10079000F3E00C94531969837A838B839C832D83B4
:1007A0003E834F83588789E0E82EF12CEC0EFD1E26
:1007B000CE010196B7010E9446068E010F5E1F4FC3
:1007C000CE010596B8010E9446068985823040F028
:1007D0008989823028F0C701B8010E94BE0601C095
:1007E0008FEF6896E6E00C946F19A8E1B0E0EBEFAC
:1007F000F3E00C94531969837A838B839C832D8354
:100800003E834F83588789E0E82EF12CEC0EFD1EC5
:10081000CE010196B7010E9446068E010F5E1F4F62
:10082000CE010596B8010E9446068985823040F0C7
:100830008989823028F0C701B8010E94BE0601C034
:100840008FEF6896E6E00C946F19A8E1B0E0EBE258
:10085000F4E00C94531969837A838B839C832D83F2
:100860003E834F83588789E0E82EF12CEC0EFD1E65
:10087000CE010196B7010E9446068E010F5E1F4F02
:10088000CE010596B8010E9446068985823040F067
:100890008989823028F0C701B8010E94BE0601C0D4
:1008A00081E06896E6E00C946F19ACE0B0E0EBE50F
:1008B000F4E00C94571969837A838B839C83CE016F
:1008C0000196BE016B5F7F4F0E9446068D8182308C
:1008D00061F1823050F1843021F48E81882351F10E
:1008E0002EC02F81388537FD20C06E812F31310514
:1008F0001CF06623F9F023C08EE190E0821B930B7D
:1009000029853A854B855C8504C056954795379572
:1009100027958A95D2F76623B1F05095409530958A
:1009200021953F4F4F4F5F4F0EC020E030E040E039
:1009300050E009C02FEF3FEF4FEF5FE704C020E02A
:1009400030E040E050E8B901CA012C96E2E00C9496
:100950007319A8E0B0E0EFEAF4E00C944F197B01C2
:100960008C01611571058105910519F482E0898377
:1009700060C083E089838EE1C82ED12CDC82CB82DB
:10098000ED82FE820F831887C801B7010E942205FD
:10099000FC013197F7FF3BC0222733272E1B3F0B6B
:1009A00057016801022E04C0D694C794B794A79447
:1009B0000A94D2F740E050E060E070E081E090E01F
:1009C000A0E0B0E004C0880F991FAA1FBB1F2A95A2
:1009D000D2F70197A109B1098E219F21A023B1234C
:1009E0000097A105B10521F041E050E060E070E022
:1009F0004A295B296C297D294D835E836F83788723
:100A00008EE190E08E1B9F0B9C838B8312C03097EE
:100A100081F00E2E04C0EE0CFF1C001F111F0A9463
:100A2000D2F7ED82FE820F831887CE1ADF0ADC82AE
:100A3000CB821A82CE0101960E9471052896EAE0C7
:100A40000C946B19EF92FF920F931F937B018C0113
:100A500080E0E81680E0F80681E0080780E01807EB
:100A600088F48FEFE816F1040105110531F028F044
:100A700088E090E0A0E0B0E017C080E090E0A0E067
:100A8000B0E012C080E0E81680E0F80680E00807D9
:100A900081E0180728F088E190E0A0E0B0E004C011
:100AA00080E190E0A0E0B0E020E230E040E050E003
:100AB000281B390B4A0B5B0B04C016950795F7945E
:100AC000E7948A95D2F7F701E859FF4F8081281BF8
:100AD000310941095109C9011F910F91FF90EF9010
:100AE0000895DF92EF92FF920F931F93FC01E48031
:100AF000F58006811781D1808081823048F480E0C2
:100B000090E0A0E1B0E0E82AF92A0A2B1B2BA5C04F
:100B1000843009F49FC0823021F4EE24FF24870141
:100B200005C0E114F1040105110519F4E0E0F0E05D
:100B300096C0628173819FEF623879070CF05BC0C9
:100B400022E83FEF261B370B2A3131052CF020E03D
:100B500030E040E050E02AC0B801A701022E04C0F6
:100B600076956795579547950A94D2F781E090E07E
:100B7000A0E0B0E004C0880F991FAA1FBB1F2A95F0
:100B8000D2F70197A109B1098E219F21A023B1239A
:100B90000097A105B10521F081E090E0A0E0B0E070
:100BA0009A01AB01282B392B4A2B5B2BDA01C901A7
:100BB0008F779070A070B07080349105A105B10559
:100BC00039F427FF09C0205C3F4F4F4F5F4F04C0EF
:100BD000215C3F4F4F4F5F4FE0E0F0E02030A0E05E
:100BE0003A07A0E04A07A0E45A0710F0E1E0F0E07D
:100BF00079018A0127C06038710564F5FB01E1586D
:100C0000FF4FD801C7018F779070A070B07080340B
:100C10009105A105B10539F4E7FE0DC080E490E02F
:100C2000A0E0B0E004C08FE390E0A0E0B0E0E80E08
:100C3000F91E0A1F1B1F17FF05C016950795F7948D
:100C4000E794319687E016950795F794E7948A958F
:100C5000D1F705C0EE24FF248701EFEFF0E06E2FFF
:100C6000679566276795902F9F77D794DD24D79453
:100C70008E2F8695492F462B582F5D29B701CA0123
:100C80001F910F91FF90EF90DF900895FC01DB0121
:100C9000408151812281622F6F7770E0221F2227CD
:100CA000221F9381892F880F822B282F30E0991FD4
:100CB0009927991F11969C93119721153105A9F534
:100CC000411551056105710511F482E037C082E8D4
:100CD0009FEF13969C938E9312979A01AB0167E056
:100CE000220F331F441F551F6A95D1F783E08C9361
:100CF0000DC0220F331F441F551F12968D919C91DA
:100D00001397019713969C938E931297203080E04F
:100D1000380780E0480780E4580758F314962D936D
:100D20003D934D935C93179708952F3F310579F4C8
:100D3000411551056105710519F484E08C930895FE
:100D400064FF03C081E08C9312C01C9210C02F5727
:100D5000304013963C932E93129783E08C9387E058
:100D6000440F551F661F771F8A95D1F7706414963C
:100D70004D935D936D937C93179708951F93DC01BA
:100D8000FB019C91923008F447C08081823008F4C6
:100D900043C0943051F411961C91843099F58181AF
:100DA000682F70E0611B71093FC0843021F09230E0
:100DB00031F48230B9F18181882389F12DC01196F7
:100DC0001C9111978230F1F081811817D9F4129695
:100DD0002D913C911397828193818217930794F010
:100DE00028173907BCF014968D919D910D90BC91F8
:100DF000A02D2481358146815781281739074A075C
:100E00005B0718F4112341F00AC082179307A40767
:100E1000B50740F4112319F061E070E005C06FEFF1
:100E20007FEF02C060E070E0CB011F910895DF9377
:100E3000CF9300D0CDB7DEB79A83898382E063E099
:100E400041E00E942E0CE3E5F0E080818064808325
:100E5000E3E5F0E0808188608083E3E5F0E0808175
:100E60008F7C80628083ECE5F0E01082E9E5F0E0C1
:100E7000808182608083E3E5F0E08081887F846008
:100E800080830F900F90CF91DF9108951F920F9262
:100E90000FB60F9211242F933F934F935F936F934D
:100EA0007F938F939F93AF93BF93EF93FF93DF93C2
:100EB000CF93CDB7DEB7E0918A01F0918B01099510
:100EC000E2E5F0E01082CF91DF91FF91EF91BF91C9
:100ED000AF919F918F917F916F915F914F913F91D2
:100EE0002F910F900FBE0F901F901895DF93CF9307
:100EF00000D0CDB7DEB78A8319828A81882F90E02F
:100F0000A0E0B0E0BC01CD010E94A904DC01CB014E
:100F1000BC01CD0120E030E048EC52E40E9419030E
:100F2000DC01CB01BC01CD0120E030E04FE753E410
:100F30000E941F02DC01CB01BC01CD010E944900CF
:100F4000DC01CB01898382E063E041E00E942E0C4A
:100F5000E3E5F0E0808180648083E3E5F0E0808178
:100F600088608083E3E5F0E080818F7C806280830D
:100F7000ECE5F0E089818083E3E5F0E08081887F23
:100F8000846080830F900F90CF91DF910895DF935D
:100F9000CF93CDB7DEB7EFE4F0E080818E7F808322
:100FA000EFE4F0E080818D7F8083EEE4F0E08081EB
:100FB000877F8083EEE4F0E080818F7E8083EEE4A3
:100FC000F0E08081887F82608083CF91DF910895F7
:100FD000DF93CF9300D0CDB7DEB79A838983ECE45B
:100FE000F0E089819A81918380830F900F90CF9157
:100FF000DF910895DF93CF93CDB7DEB7ECE4F0E057
:1010000080819181CF91DF910895DF93CF9300D0BC
:10101000CDB7DEB79A838983E6E4F0E089819A81CF
:10102000918380830F900F90CF91DF910895DF938C
:10103000CF93CDB7DEB7E6E4F0E080819181CF9128
:10104000DF910895DF93CF930F92CDB7DEB78983F9
:10105000E1E4F0E089818770982F97708081887F24
:10106000892B8083E1E4F0E08081886080830F90A9
:10107000CF91DF910895DF93CF93CDB7DEB7E1E451
:10108000F0E0808180618083E1E4F0E0808188602D
:101090008083E1E4F0E08081877F8083CF91DF91DE
:1010A0000895DF93CF93CDB7DEB7EDE2F0E0808116
:1010B0008F778083EDE2F0E080818061808382E041
:1010C00064E041E00E942E0C82E065E041E00E9475
:1010D0002E0C82E066E040E00E942E0C82E067E089
:1010E00041E00E942E0CEDE2F0E08081877F80835A
:1010F000EDE2F0E080818B7F8083EDE2F0E08081A3
:1011000081608083EDE2F0E080818D7F8083EEE27C
:10111000F0E0808181608083EDE2F0E08081806496
:101120008083CF91DF910895DF93CF930F92CDB756
:10113000DEB78983EFE2F0E089818083EEE2F0E0C0
:10114000808180788823D1F3EFE2F0E080810F90F6
:10115000CF91DF910895DF93CF9300D000D00F920D
:10116000CDB7DEB789837B836A835D834C83EDE2F1
:10117000F0E08081806880838A819B8190938D01DB
:1011800080938C01EC81FD8110828C819D819093F4
:101190008F0180938E01EFE2F0E0898180830F90D0
:1011A0000F900F900F900F90CF91DF9108951F92A5
:1011B0000F920FB60F9211248F93AF93BF93EF93BB
:1011C000FF93DF93CF93CDB7DEB7A0918C01B091A1
:1011D0008D01EFE2F0E080818C93E0918E01F0913F
:1011E0008F0181E08083CF91DF91FF91EF91BF91DB
:1011F000AF918F910F900FBE0F901F901895DF93B6
:10120000CF93CDB7DEB783E060E041E00E942E0CC3
:1012100083E061E041E00E942E0C0E94190A0E94C6
:10122000520A0E945E0A0E94010ACF91DF9108953E
:10123000DF93CF930F92CDB7DEB71982E6E5F0E0EA
:101240008081806280830E94250A0E94310A813059
:10125000E1F70E943E0A883019F081E0898301C0DD
:10126000198289810F90CF91DF910895DF93CF93F9
:101270000F92CDB7DEB71982E6E5F0E0808180629B
:1012800080830E94250A0E94310A8130E1F70E9482
:101290003E0A803119F081E0898301C01982898179
:1012A0000F90CF91DF910895DF93CF9300D0CDB70A
:1012B000DEB78A831982E3E2F0E08A81880F8083B7
:1012C000A3E2B0E0E3E2F0E080818C930E940D0A9B
:1012D0000E94250A0E94310A8130E1F70E943E0AED
:1012E000883119F083E0898301C0198289810F90C8
:1012F0000F90CF91DF910895DF93CF9300D0CDB7BA
:10130000DEB78A831982E3E2F0E08A81880F808366
:10131000A3E2B0E0E3E2F0E0808181608C930E9480
:101320000D0A0E94250A0E94310A8130E1F70E94CD
:101330003E0A803419F083E0898301C019828981D3
:101340000F900F90CF91DF910895DF93CF9300D04E
:10135000CDB7DEB78A831982E3E2F0E08A81808329
:101360000E94250A0E94310A8130E1F70E943E0A5C
:10137000883219F085E0898301C0198289810F9034
:101380000F90CF91DF910895DF93CF9300D00F920C
:10139000CDB7DEB79B838A8319820E94250A0E94FB
:1013A000310A8130E1F70E943E0A803519F086E06B
:1013B000898306C00E94700AEA81FB8180831982BA
:1013C00089810F900F900F90CF91DF910895DF9357
:1013D000CF93CDB7DEB7E6E5F0E080818061808312
:1013E0000E94250ACF91DF910895DF93CF93CDB767
:1013F000DEB7E6E5F0E0808181608083CF91DF9108
:101400000895DF93CF93CDB7DEB7E6E5F0E08081B6
:1014100084608083CF91DF910895DF93CF93CDB720
:10142000DEB7E6E5F0E080818F7D8083CF91DF91AC
:101430000895DF93CF93CDB7DEB7E6E5F0E0808186
:1014400080648083CF91DF910895DF93CF93CDB7F0
:10145000DEB7E6E5F0E0808180688083CF91DF91A0
:101460000895DF93CF93CDB7DEB7E6E5F0E0808156
:10147000881F8827881FCF91DF910895DF93CF932E
:101480000F92CDB7DEB7E1E2F0E0808186958695D8
:10149000869589838981887F898389810F90CF91FF
:1014A000DF910895DF93CF93CDB7DEB7E1E2F0E0AF
:1014B00080818C7F8083CF91DF910895DF93CF93DC
:1014C000CDB7DEB7E2E2F0E0808181708A6280838E
:1014D000E2E2F0E080818E7F8083CF91DF910895FA
:1014E000DF93CF93CDB7DEB7E3E2F0E08081CF9119
:1014F000DF910895DF93CF93CDB7DEB7AFE5B0E0CE
:10150000EFE5F0E0808180688C93CF91DF910895C2
:10151000DF93CF93CDB7DEB7AFE5B0E0EFE5F0E016
:1015200080818F778C93CF91DF910895DF93CF9354
:10153000CDB7DEB784E063E040E00E942E0C84E08B
:1015400063E041E00E94300DA5E5B0E0E5E5F0E0A4
:10155000808188608C93A5E5B0E0E5E5F0E08081CE
:1015600084608C93ABE5B0E0EBE5F0E080818068CF
:101570008C93CF91DF910895DF93CF93CDB7DEB7F2
:10158000ABE5B0E0EBE5F0E080818F778C93CF9115
:10159000DF910895DF93CF930F92CDB7DEB78983A4
:1015A00084E063E040E00E942E0C84E063E041E0D0
:1015B0000E94300D8981813079F4A5E5B0E0E5E540
:1015C000F0E080818B7F8C93A5E5B0E0E5E5F0E06D
:1015D000808188608C9335C08981882379F4A5E562
:1015E000B0E0E5E5F0E08081877F8C93A5E5B0E091
:1015F000E5E5F0E0808184608C9323C089818230AE
:1016000079F4A5E5B0E0E5E5F0E0808188608C93B1
:10161000A5E5B0E0E5E5F0E0808184608C9311C041
:101620008981833071F4A5E5B0E0E5E5F0E08081E3
:10163000877F8C93A5E5B0E0E5E5F0E080818B7FC6
:101640008C93ABE5B0E0EBE5F0E0808180688C93B3
:101650000F90CF91DF910895DF93CF93CDB7DEB791
:1016600084E062E040E00E942E0C84E062E041E011
:101670000E94300DA5E5B0E0E5E5F0E080818160F5
:101680008C93A5E5B0E0E5E5F0E0808182608C9385
:10169000ABE5B0E0EBE5F0E0808180648C93CF9126
:1016A000DF910895DF93CF93CDB7DEB782E062E09C
:1016B00040E00E942E0C82E062E041E00E94300D8A
:1016C000A4E5B0E0E4E5F0E080818F7B8C93ABE5AE
:1016D000B0E0EBE5F0E0808180628C93CF91DF9108
:1016E0000895DF93CF9300D0CDB7DEB79A83898377
:1016F00089819A8190939101809390010F900F902E
:10170000CF91DF910895DF93CF9300D0CDB7DEB7AF
:101710009A83898389819A8190939301809392011E
:101720000F900F90CF91DF910895DF93CF9300D06A
:10173000CDB7DEB79A83898389819A819093950189
:10174000809394010F900F90CF91DF9108951F9295
:101750000F920FB60F9211242F933F934F935F93E5
:101760006F937F938F939F93AF93BF93EF93FF9369
:10177000DF93CF93CDB7DEB7E0919001F091910167
:101780000995CF91DF91FF91EF91BF91AF919F911B
:101790008F917F916F915F914F913F912F910F901A
:1017A0000FBE0F901F9018951F920F920FB60F92B9
:1017B00011242F933F934F935F936F937F938F9356
:1017C0009F93AF93BF93EF93FF93DF93CF93CDB7E7
:1017D000DEB7E0919201F09193010995CF91DF91ED
:1017E000FF91EF91BF91AF919F918F917F916F91F9
:1017F0005F914F913F912F910F900FBE0F901F90CF
:1018000018951F920F920FB60F9211242F933F93AA
:101810004F935F936F937F938F939F93AF93BF93F8
:10182000EF93FF93DF93CF93CDB7DEB7E0919401B1
:10183000F09195010995CF91DF91FF91EF91BF91C3
:10184000AF919F918F917F916F915F914F913F9158
:101850002F910F900FBE0F901F901895DF93CF938D
:10186000CDB7DEB727970FB6F894DEBF0FBECDBF5A
:1018700089836A834B838B81813009F070C08981B1
:10188000282F30E03F832E838E819F818230910507
:1018900051F12E813F812330310534F48E819F81B7
:1018A0008130910561F0D3C02E813F812330310515
:1018B00071F18E819F8184309105E9F1C8C0AAE35E
:1018C000B0E0EAE3F0E08081482F8A81282F30E001
:1018D00081E090E0022E02C0880F991F0A94E2F77F
:1018E000842B8C93B4C0A7E3B0E0E7E3F0E0808101
:1018F000482F8A81282F30E081E090E0022E02C03C
:10190000880F991F0A94E2F7842B8C93A0C0A4E35C
:10191000B0E0E4E3F0E08081482F8A81282F30E0B6
:1019200081E090E0022E02C0880F991F0A94E2F72E
:10193000842B8C938CC0A1E3B0E0E1E3F0E08081E4
:10194000482F8A81282F30E081E090E0022E02C0EB
:10195000880F991F0A94E2F7842B8C9378C08B81AF
:10196000882309F074C08981282F30E03D832C83BF
:101970008C819D818230910561F12C813D812330E4
:10198000310534F48C819D818130910569F05FC00F
:101990002C813D812330310589F18C819D818430FA
:1019A000910509F440C053C0AAE3B0E0EAE3F0E0D7
:1019B0008081482F8A81282F30E081E090E0022E3C
:1019C00002C0880F991F0A94E2F7809584238C93B4
:1019D0003EC0A7E3B0E0E7E3F0E08081482F8A81D2
:1019E000282F30E081E090E0022E02C0880F991F7E
:1019F0000A94E2F7809584238C9329C0A4E3B0E095
:101A0000E4E3F0E08081482F8A81282F30E081E0F4
:101A100090E0022E02C0880F991F0A94E2F7809589
:101A200084238C9314C0A1E3B0E0E1E3F0E0808173
:101A3000482F8A81282F30E081E090E0022E02C0FA
:101A4000880F991F0A94E2F7809584238C93279638
:101A50000FB6F894DEBF0FBECDBFCF91DF910895D2
:101A6000DF93CF93CDB7DEB727970FB6F894DEBFDD
:101A70000FBECDBF89836A834B838B81813009F090
:101A800070C08981282F30E03F832E838E819F8113
:101A90008230910551F12E813F812330310534F49C
:101AA0008E819F818130910561F0D3C02E813F816D
:101AB0002330310571F18E819F8184309105E9F1E8
:101AC000C8C0ABE3B0E0EBE3F0E08081482F8A814F
:101AD000282F30E081E090E0022E02C0880F991F8D
:101AE0000A94E2F7842B8C93B4C0A8E3B0E0E8E357
:101AF000F0E08081482F8A81282F30E081E090E05B
:101B0000022E02C0880F991F0A94E2F7842B8C934F
:101B1000A0C0A5E3B0E0E5E3F0E08081482F8A8132
:101B2000282F30E081E090E0022E02C0880F991F3C
:101B30000A94E2F7842B8C938CC0A2E3B0E0E2E33A
:101B4000F0E08081482F8A81282F30E081E090E00A
:101B5000022E02C0880F991F0A94E2F7842B8C93FF
:101B600078C08B81882309F074C08981282F30E0E8
:101B70003D832C838C819D818230910561F12C8184
:101B80003D812330310534F48C819D818130910574
:101B900069F05FC02C813D812330310589F18C8152
:101BA0009D818430910509F440C053C0ABE3B0E09F
:101BB000EBE3F0E08081482F8A81282F30E081E03C
:101BC00090E0022E02C0880F991F0A94E2F78095D8
:101BD00084238C933EC0A8E3B0E0E8E3F0E080818A
:101BE000482F8A81282F30E081E090E0022E02C049
:101BF000880F991F0A94E2F7809584238C9329C05B
:101C0000A5E3B0E0E5E3F0E08081482F8A81282F4A
:101C100030E081E090E0022E02C0880F991F0A9404
:101C2000E2F7809584238C9314C0A2E3B0E0E2E352
:101C3000F0E08081482F8A81282F30E081E090E019
:101C4000022E02C0880F991F0A94E2F78095842320
:101C50008C9327960FB6F894DEBF0FBECDBFCF9101
:101C6000DF910895DF93CF9300D000D00F92CDB7CE
:101C7000DEB78A836B838FEF89838A81282F30E0D8
:101C80003D832C834C815D814230510541F18C8133
:101C90009D818330910534F42C813D8121303105C3
:101CA00061F052C04C815D814330510551F18C810E
:101CB0009D8184309105B9F147C0E9E3F0E080816E
:101CC000282F30E08B81882F90E0A90102C0559524
:101CD00047958A95E2F7CA018170898335C0E6E3AA
:101CE000F0E08081282F30E08B81882F90E0A901DF
:101CF00002C0559547958A95E2F7CA01817089839C
:101D000023C0E3E3F0E08081282F30E08B81882F2F
:101D100090E0A90102C0559547958A95E2F7CA015E
:101D20008170898311C0E0E3F0E08081282F30E0EA
:101D30008B81882F90E0A90102C0559547958A951F
:101D4000E2F7CA018170898389810F900F900F900B
:101D50000F900F90CF91DF910895DF93CF9300D034
:101D600000D0CDB7DEB789836A838981282F30E020
:101D70003C832B838B819C818230910551F12B8197
:101D80003C812330310534F48B819C818130910575
:101D900061F05AC02B813C812330310571F18B8178
:101DA0009C8184309105E9F14FC0ABE3B0E0EBE3F7
:101DB000F0E08081482F8A81282F30E081E090E098
:101DC000022E02C0880F991F0A94E2F784278C9391
:101DD0003BC0A8E3B0E0E8E3F0E08081482F8A81CF
:101DE000282F30E081E090E0022E02C0880F991F7A
:101DF0000A94E2F784278C9327C0A5E3B0E0E5E3DB
:101E0000F0E08081482F8A81282F30E081E090E047
:101E1000022E02C0880F991F0A94E2F784278C9340
:101E200013C0A2E3B0E0E2E3F0E08081482F8A81B2
:101E3000282F30E081E090E0022E02C0880F991F29
:101E40000A94E2F784278C930F900F900F900F90D5
:101E5000CF91DF910895DF93CF9300D000D0CDB71D
:101E6000DEB789836A838981282F30E03C832B8306
:101E70008B819C8182309105D9F02B813C8123306C
:101E8000310534F48B819C818130910561F01EC055
:101E90002B813C812330310581F08B819C81843002
:101EA000910581F013C0EAE3F0E08A8180830EC0DF
:101EB000E7E3F0E08A81808309C0E4E3F0E08A810F
:101EC000808304C0E1E3F0E08A8180830F900F906B
:101ED0000F900F90CF91DF910895DF93CF9300D0B3
:101EE00000D0CDB7DEB789836A838981282F30E09F
:101EF0003C832B838B819C8182309105D9F02B818F
:101F00003C812330310534F48B819C8181309105F3
:101F100061F01EC02B813C812330310581F08B8123
:101F20009C818430910581F013C0EBE3F0E08A815D
:101F300080830EC0E8E3F0E08A81808309C0E5E396
:101F4000F0E08A81808304C0E2E3F0E08A8180834C
:101F50000F900F900F900F90CF91DF910895DF9326
:101F6000CF93CDB7DEB7E7E2F0E08081806C80836D
:101F7000E7E2F0E080818F7D8083E6E2F0E080811F
:101F8000887F85608083E6E2F0E0808180688083DE
:101F9000CF91DF910895DF93CF93CDB7DEB7279729
:101FA0000FB6F894DEBF0FBECDBF8D831C821B829F
:101FB0001A821982E7E2F0E08D818F71982F9F716C
:101FC0008081807E892B8083E6E2F0E080818064DE
:101FD000808305C08B819C8101969C838B83E6E284
:101FE000F0E080818071882331F48B819C8127E22D
:101FF0008031920778F3E6E2F0E0808180718823F7
:1020000081F0E4E2F0E0808191819A838983E6E2C5
:10201000F0E080818061808389819A819F838E83B3
:1020200002C01F821E828E819F8127960FB6F89470
:10203000DEBF0FBECDBFCF91DF9108950F931F93E9
:10204000DF93CF93CDB7DEB72E970FB6F894DEBFF0
:102050000FBECDBF9E838D8378876F835A87498754
:102060003C872B871E870D8719821A821B821C8250
:102070002D813E818F819885A901481B590B2D85A3
:102080003E8589859A85B901681B790BCB01480F7C
:10209000591F2B853C858F819885281B390BCA01D8
:1020A000B9010E942019CB019C0189859A85820F74
:1020B000931FCC01A0E0B0E089839A83AB83BC83FB
:1020C00089819A81AB81BC81BC01CD012E960FB66E
:1020D000F894DEBF0FBECDBFCF91DF911F910F915E
:1020E0000895DF93CF9300D0CDB7DEB789836A839D
:1020F00089816A8140E00E942E0C89816A8141E0D9
:102100000E94300D0F900F90CF91DF910895DF93D3
:10211000CF9300D0CDB7DEB789836A8389816A8186
:102120000E94320E0F900F90CF91DF910895DF93B0
:10213000CF93CDB7DEB782E06FEF0E942B0FCF9128
:10214000DF910895DF93CF93CDB7DEB782E06FEFD5
:102150000E942B0F84E060E041E00E942E0C84E09E
:1021600061E041E00E942E0CCF91DF910895DF9352
:10217000CF93CDB7DEB7A0970FB6F894DEBF0FBEF2
:10218000CDBF8F8F68A31E8E1D8E03C184E061E0DA
:1021900041E00E94300D8F8D0E94D81184E060E0F4
:1021A00040E00E94300D80E090E0A0E2B1E4898F31
:1021B0009A8FAB8FBC8F698D7A8D8B8D9C8D20E033
:1021C00030E04AEF54E40E941F02DC01CB018D8B0A
:1021D0009E8BAF8BB88F6D897E898F89988D20E01B
:1021E00030E040E85FE30E94250488232CF481E07E
:1021F00090E09C8B8B8B3FC06D897E898F89988DF9
:1022000020E03FEF4FE757E40E94C50318164CF556
:10221000698D7A8D8B8D9C8D20E030E040E251E419
:102220000E941F02DC01CB01BC01CD010E944900CC
:10223000DC01CB019C8B8B8B0FC088EC90E09A8BE0
:10224000898B89899A890197F1F79A8B898B8B8978
:102250009C8901979C8B8B8B8B899C89009769F754
:1022600014C06D897E898F89988D0E944900DC0198
:10227000CB019C8B8B8B8B899C89988B8F878F85CF
:1022800098890197F1F7988B8F8784E060E041E0AF
:102290000E94300D88A10E94D81184E061E040E0E6
:1022A0000E94300D80E090E0A0E2B1E48B879C8733
:1022B000AD87BE876B857C858D859E8520E030E06F
:1022C0004AEF54E40E941F02DC01CB018F83988700
:1022D000A987BA876F81788589859A8520E030E063
:1022E00040E85FE30E94250488232CF481E090E01D
:1022F0009E838D833FC06F81788589859A8520E094
:102300003FEF4FE757E40E94C50318164CF56B8565
:102310007C858D859E8520E030E040E251E40E947E
:102320001F02DC01CB01BC01CD010E944900DC0190
:10233000CB019E838D830FC088EC90E09C838B83C0
:102340008B819C810197F1F79C838B838D819E818A
:1023500001979E838D838D819E81009769F714C0BC
:102360006F81788589859A850E944900DC01CB01BF
:102370009E838D838D819E819A83898389819A81B1
:102380000197F1F79A8389838D8D9E8D01969E8F9B
:102390008D8F8D8D9E8D823391050CF4F7CEA09696
:1023A0000FB6F894DEBF0FBECDBFCF91DF91089579
:1023B000DF93CF930F92CDB7DEB789838981882FC2
:1023C00090E0FC01E859FE4F908182E0692F0E9465
:1023D0006D0F0F90CF91DF910895DF93CF9300D0D1
:1023E000CDB7DEB789836A8389816A8141E00E9423
:1023F0002E0C0F900F90CF91DF910895DF93CF9324
:1024000000D0CDB7DEB789836A8389816A8141E0D4
:102410000E94300D0F900F90CF91DF910895DF93C0
:10242000CF9300D0CDB7DEB789836A8389816A8173
:1024300040E00E94300D0F900F90CF91DF910895F2
:10244000DF93CF93CDB7DEB76D970FB6F894DEBFAD
:102450000FBECDBF8D8F83E060E040E00E94300D65
:1024600083E061E040E00E94300D8D8D982F991F30
:102470009927991F81E067E0492F0E94300D8D8DCB
:102480008295869586958370982F917081E066E09D
:10249000492F0E94300D8D8D829586958770982FDB
:1024A000917081E065E0492F0E94300D8D8D8295FD
:1024B0008F70982F917081E064E0492F0E94300D59
:1024C00083E062E041E00E94300D80E090E0A0E017
:1024D000B0E4898F9A8FAB8FBC8F698D7A8D8B8D8D
:1024E0009C8D20E030E04AEF54E40E941F02DC01A2
:1024F000CB018D8B9E8BAF8BB88F6D897E898F8939
:10250000988D20E030E040E85FE30E9425048823B6
:102510002CF481E090E09C8B8B8B3FC06D897E8991
:102520008F89988D20E03FEF4FE757E40E94C50365
:1025300018164CF5698D7A8D8B8D9C8D20E030E0DE
:1025400040E251E40E941F02DC01CB01BC01CD013D
:102550000E944900DC01CB019C8B8B8B0FC088EC67
:1025600090E09A8B898B89899A890197F1F79A8BE8
:10257000898B8B899C8901979C8B8B8B8B899C8900
:10258000009769F714C06D897E898F89988D0E94A4
:102590004900DC01CB019C8B8B8B8B899C89988BB0
:1025A0008F878F8598890197F1F7988B8F8783E0C4
:1025B00062E040E00E94300D8D8D8695869586956F
:1025C000982F917081E067E0492F0E94300D8D8D2A
:1025D00086958695982F917081E066E0492F0E943C
:1025E000300D8D8D8695982F917081E065E0492F93
:1025F0000E94300D8D8D982F917081E064E0492FFD
:102600000E94300D83E062E041E00E94300D80E0E6
:1026100090E0A0E0B0E48B879C87AD87BE876B8598
:102620007C858D859E8520E030E04AEF54E40E9451
:102630001F02DC01CB018F839887A987BA876F813E
:10264000788589859A8520E030E040E85FE30E9444
:10265000250488232CF481E090E09E838D833FC085
:102660006F81788589859A8520E03FEF4FE757E4B1
:102670000E94C50318164CF56B857C858D859E855B
:1026800020E030E040E251E40E941F02DC01CB0177
:10269000BC01CD010E944900DC01CB019E838D83EA
:1026A0000FC088EC90E09C838B838B819C81019789
:1026B000F1F79C838B838D819E8101979E838D830F
:1026C0008D819E81009769F714C06F817885898517
:1026D0009A850E944900DC01CB019E838D838D8108
:1026E0009E819A83898389819A810197F1F79A83E0
:1026F000898383E062E040E00E94300D6D960FB662
:10270000F894DEBF0FBECDBFCF91DF910895DF9368
:10271000CF93CDB7DEB72E970FB6F894DEBF0FBEBE
:10272000CDBF81E067E041E00E942E0C81E066E0D1
:1027300041E00E942E0C81E065E041E00E942E0CF9
:1027400081E064E041E00E942E0C83E062E041E021
:102750000E942E0C83E060E041E00E942E0C83E09A
:1027600061E041E00E942E0C80E090E0A0E2B2E443
:102770008B879C87AD87BE876B857C858D859E8585
:1027800020E030E04AEF54E40E941F02DC01CB015C
:102790008F839887A987BA876F81788589859A857D
:1027A00020E030E040E85FE30E94250488232CF419
:1027B00081E090E09E838D833FC06F81788589851D
:1027C0009A8520E03FEF4FE757E40E94C5031816B3
:1027D0004CF56B857C858D859E8520E030E040E260
:1027E00051E40E941F02DC01CB01BC01CD010E941B
:1027F0004900DC01CB019E838D830FC088EC90E003
:102800009C838B838B819C810197F1F79C838B83C5
:102810008D819E8101979E838D838D819E810097FE
:1028200069F714C06F81788589859A850E9449006F
:10283000DC01CB019E838D838D819E819A83898368
:1028400089819A810197F1F79A83898382E00E94B6
:10285000201288E20E9420128CE00E94201281E067
:102860000E94201286E00E9420122E960FB6F89445
:10287000DEBF0FBECDBFCF91DF910895DF93CF9321
:10288000CDB7DEB781E00E942012CF91DF9108958D
:10289000DF93CF93CDB7DEB7E9970FB6F894DEBFDD
:1028A0000FBECDBF89AF83E060E041E00E94300DF4
:1028B00083E061E040E00E94300D89AD982F991FC0
:1028C0009927991F81E067E0492F0E94300D89AD5B
:1028D0008295869586958370982F917081E066E049
:1028E000492F0E94300D89AD829586958770982F6B
:1028F000917081E065E0492F0E94300D89AD82958D
:102900008F70982F917081E064E0492F0E94300D04
:1029100083E062E041E00E94300D80E090E0A0E0C2
:10292000B0E48DAB9EABAFABB8AF6DA97EA98FA95C
:1029300098AD20E030E04AEF54E40E941F02DC0131
:10294000CB0189AB9AABABABBCAB69A97AA98BA91C
:102950009CA920E030E040E85FE30E942504882342
:102960002CF481E090E098AB8FA73FC069A97AA9C9
:102970008BA99CA920E03FEF4FE757E40E94C503D5
:1029800018164CF56DA97EA98FA998AD20E030E00E
:1029900040E251E40E941F02DC01CB01BC01CD01E9
:1029A0000E944900DC01CB0198AB8FA70FC088ECD7
:1029B00090E09EA78DA78DA59EA50197F1F79EA7F4
:1029C0008DA78FA598A9019798AB8FA78FA598A9D8
:1029D000009769F714C069A97AA98BA99CA90E94DC
:1029E0004900DC01CB0198AB8FA78FA598A99CA7C4
:1029F0008BA78BA59CA50197F1F79CA78BA783E0DC
:102A000062E040E00E94300D80E090E0A0E0B0E4A1
:102A10008FA398A7A9A7BAA76FA178A589A59AA5FA
:102A200020E030E04AEF54E40E941F02DC01CB01B9
:102A30008BA39CA3ADA3BEA36BA17CA18DA19EA1E2
:102A400020E030E040E85FE30E94250488232CF476
:102A500081E090E09AA389A33FC06BA17CA18DA1E6
:102A60009EA120E03FEF4FE757E40E94C5031816F0
:102A70004CF56FA178A589A59AA520E030E040E249
:102A800051E40E941F02DC01CB01BC01CD010E9478
:102A90004900DC01CB019AA389A30FC088EC90E028
:102AA00098A38F8F8F8D98A10197F1F798A38F8F9F
:102AB00089A19AA101979AA389A389A19AA10097B4
:102AC00069F714C06BA17CA18DA19EA10E94490051
:102AD000DC01CB019AA389A389A19AA19E8F8D8F36
:102AE0008D8D9E8D0197F1F79E8F8D8F89AD869587
:102AF00086958695982F917081E067E0492F0E9416
:102B0000300D89AD86958695982F917081E066E0AD
:102B1000492F0E94300D89AD8695982F917081E0E4
:102B200065E0492F0E94300D89AD982F917081E0AA
:102B300064E0492F0E94300D83E062E041E00E9492
:102B4000300D80E090E0A0E0B0E4898F9A8FAB8FE9
:102B5000BC8F698D7A8D8B8D9C8D20E030E04AEFA3
:102B600054E40E941F02DC01CB018D8B9E8BAF8B46
:102B7000B88F6D897E898F89988D20E030E040E89C
:102B80005FE30E94250488232CF481E090E09C8B75
:102B90008B8B3FC06D897E898F89988D20E03FEFB8
:102BA0004FE757E40E94C50318164CF5698D7A8DDE
:102BB0008B8D9C8D20E030E040E251E40E941F02AA
:102BC000DC01CB01BC01CD010E944900DC01CB013D
:102BD0009C8B8B8B0FC088EC90E09A8B898B8989BA
:102BE0009A890197F1F79A8B898B8B899C89019738
:102BF0009C8B8B8B8B899C89009769F714C06D899E
:102C00007E898F89988D0E944900DC01CB019C8BC5
:102C10008B8B8B899C89988B8F878F85988901975F
:102C2000F1F7988B8F8783E062E040E00E94300DDF
:102C300080E090E0A0E0B0E48B879C87AD87BE8702
:102C40006B857C858D859E8520E030E04AEF54E4DD
:102C50000E941F02DC01CB018F839887A987BA8766
:102C60006F81788589859A8520E030E040E85FE3D0
:102C70000E94250488232CF481E090E09E838D83BC
:102C80003FC06F81788589859A8520E03FEF4FE7C7
:102C900057E40E94C50318164CF56B857C858D851D
:102CA0009E8520E030E040E251E40E941F02DC01FA
:102CB000CB01BC01CD010E944900DC01CB019E8308
:102CC0008D830FC088EC90E09C838B838B819C81EB
:102CD0000197F1F79C838B838D819E8101979E8361
:102CE0008D838D819E81009769F714C06F817885EF
:102CF00089859A850E944900DC01CB019E838D83E2
:102D00008D819E819A83898389819A810197F1F7C8
:102D10009A838983E9960FB6F894DEBF0FBECDBFC4
:102D2000CF91DF910895DF93CF9300D00F92CDB76D
:102D3000DEB78A836B8380E889838B81882329F4BB
:102D400089819A81890F89831AC08B81813031F4FE
:102D50009A818981890F805C898311C08B8182303F
:102D600031F49A818981890F8C5E898308C08B81B7
:102D7000833029F49A818981890F8C5A89838981CA
:102D80000E9420120F900F900F90CF91DF91089525
:102D9000DF93CF9300D00F92CDB7DEB79B838A83AA
:102DA00019820EC08981282F30E08A819B81FC0125
:102DB000E20FF31F80810E94481489818F5F89830D
:102DC0008981282F30E08A819B81FC01E20FF31F6B
:102DD0008081882339F70F900F900F90CF91DF916A
:102DE0000895DF93CF93CDB7DEB72F970FB6F89442
:102DF000DEBF0FBECDBF9F878E871B828B81E82FE2
:102E0000F0E08E859F852AE030E0B9010E943419F8
:102E1000282F205DCE010496E80FF91F20838E85B0
:102E20009F852AE030E0B9010E943419CB019F87C9
:102E30008E878B818F5F8B838E859F850097F1F6C0
:102E40008B81882F90E001979A8389830FC0298115
:102E50003A81CE010496FC01E20FF31F80810E94AB
:102E6000481489819A8101979A83898389819A81FB
:102E700099236CF72F960FB6F894DEBF0FBECDBF27
:102E8000CF91DF910895DF93CF9300D000D0CDB7DD
:102E9000DEB78A837C836B8319828A81882F90E0D6
:102EA0000896880F991F880F991F880F991F0E94F5
:102EB000201219820EC08981282F30E08B819C81DD
:102EC000FC01E20FF31F80810E94481489818F5F0B
:102ED00089838981883078F30F900F900F900F903D
:102EE000CF91DF910895DF93CF93CDB7DEB783E025
:102EF00060E040E00E942E0C83E060E041E00E9430
:102F0000300D83E061E040E00E942E0C83E061E040
:102F100041E00E94300D83E062E040E00E942E0C10
:102F200083E062E041E00E94300D83E063E040E036
:102F30000E942E0C83E063E041E00E94300D84E0AB
:102F400060E041E00E942E0C84E061E041E00E94DC
:102F50002E0C84E062E041E00E942E0C84E063E0ED
:102F600041E00E942E0C84E060E041E00E94300DC0
:102F700084E061E041E00E94300D84E062E041E0E5
:102F80000E94300D84E063E041E00E94300DCF915B
:102F9000DF910895DF93CF9300D000D00F92CDB78B
:102FA000DEB71A821B8261C08B81882F90E0FC0102
:102FB000EA58FE4F908184E0692F40E00E94300D76
:102FC0001C8240C08C81882F90E0FC01EE58FE4F9F
:102FD000908183E0692F0E94320E89838981882342
:102FE00071F58C81882F90E0FC01EE58FE4F9081A6
:102FF00083E0692F0E94320E882399F38B81882FFA
:1030000090E0FC01EA58FE4F908184E0692F41E096
:103010000E94300D8C81482F50E08B81282F30E0AA
:10302000CA01880F991F880F991F820F931FFC01F7
:10303000E658FE4F80818A838A818D831CC08C81F3
:103040008F5F8C838C81843008F4BCCF8B81882F78
:1030500090E0FC01EA58FE4F908184E0692F41E046
:103060000E94300D8B818F5F8B838B81843008F4BD
:103070009BCF8FEF8D838D810F900F900F900F90CE
:103080000F90CF91DF910895DF93CF930F92CDB73B
:10309000DEB70E94CA17898303C00E94CA178983BA
:1030A00089818F3FD1F389810F90CF91DF9108956E
:1030B000DF93CF93CDB7DEB70E94FF08CF91DF91AA
:1030C0000895DF93CF93CDB7DEB761970FB6F8942D
:1030D000DEBF0FBECDBF8F87688B498B0E9418095A
:1030E0008F850E94540988890E94A50989890E94B8
:1030F000A5090E94E70980E090E0A0E2B1E48B8797
:103100009C87AD87BE876B857C858D859E8520E0FD
:1031100030E04AEF54E40E941F02DC01CB018F83B0
:103120009887A987BA876F81788589859A8520E0F5
:1031300030E040E85FE30E94250488232CF481E01E
:1031400090E09E838D833FC06F81788589859A85C5
:1031500020E03FEF4FE757E40E94C50318164CF5F7
:103160006B857C858D859E8520E030E040E251E4D2
:103170000E941F02DC01CB01BC01CD010E9449006D
:10318000DC01CB019E838D830FC088EC90E09C8393
:103190008B838B819C810197F1F79C838B838D813D
:1031A0009E8101979E838D838D819E81009769F713
:1031B00014C06F81788589859A850E944900DC0159
:1031C000CB019E838D838D819E819A8389838981A2
:1031D0009A810197F1F79A83898361960FB6F894E3
:1031E000DEBF0FBECDBFCF91DF910895DF93CF93A8
:1031F00000D00F92CDB7DEB78A836B8319820E940D
:1032000018098A810E9454098B810E94A5090E9495
:1032100036098A810E947C09CE0101960E94C40968
:103220000E94E70989810F900F900F90CF91DF9155
:103230000895DF93CF93CDB7DEB70E94FF08FFCF8D
:10324000AA1BBB1B51E107C0AA1FBB1FA617B707CC
:1032500010F0A61BB70B881F991F5A95A9F78095E8
:103260009095BC01CD01089597FB092E07260AD041
:1032700077FD04D0E5DF06D000201AF47095619543
:103280007F4F0895F6F7909581959F4F08952F925F
:103290003F924F925F926F927F928F929F92AF92E6
:1032A000BF92CF92DF92EF92FF920F931F93CF9333
:1032B000DF93CDB7DEB7CA1BDB0B0FB6F894DEBFCA
:1032C0000FBECDBF09942A88398848885F846E84F0
:1032D0007D848C849B84AA84B984C884DF80EE803A
:1032E000FD800C811B81AA81B981CE0FD11D0FB643
:1032F000F894DEBF0FBECDBFED010895F894FFCF67
:1033000000000000000000000001020203030303AC
:103310000404040404040404050505050505050565
:103320000505050505050505060606060606060645
:10333000060606060606060606060606060606062D
:103340000606060606060606070707070707070715
:1033500007070707070707070707070707070707FD
:1033600007070707070707070707070707070707ED
:1033700007070707070707070707070707070707DD
:1033800007070707070707070808080808080808C5
:1033900008080808080808080808080808080808AD
:1033A000080808080808080808080808080808089D
:1033B000080808080808080808080808080808088D
:1033C000080808080808080808080808080808087D
:1033D000080808080808080808080808080808086D
:1033E000080808080808080808080808080808085D
:1033F000080808080808080808080808080808084D
:1034000008080808080808083F065B4F666D7D0736
:103410007F6700010203000102033738392F34357A
:0A342000362A3132332D43303D2BA4
:00000001FF
